:100000000C948C020C94BD020C94BD020C94BD02A5
:100010000C94BD020C94BD020C94BD020C94BD0264
:100020000C94BD020C94BD020C94BD020C94BD0254
:100030000C94BD020C94BD020C94BD020C94BD0244
:100040000C94BD020C94BD020C94BD020C94BD0234
:100050000C94BD020C94BD020C94BD020C944F167E
:100060000C94BD020C94B7100C94ED100C94BD02CE
:100070000C94BD020C94BD020C94BD020C94BD0204
:100080000C94BD020C94BD020C94BD020C94BD02F4
:100090000C94BD020C94BD020C94BD020C94EF199B
:1000A0000C94BD020C94BD020C94BD020C94BD02D4
:1000B0000C94BD020C94BD020C94BD020C94BD02C4
:1000C0000C94BD020C94BD020C94BD020C94BD02B4
:1000D0000C94BD020C94BD020C9464110C949A1102
:1000E0000C94BD02B705B705BA05B405BA05BA0543
:1000F000BA05BA05BA05BA05BA05BA059E05A2053C
:10010000BA05BA05BA05A805A505BA05BA05AE052A
:10011000BA05BA05B105BA05BA05BA05AB05070BAC
:10012000EF0A0A0B1C0B1F0B220B250B280B2B0BAA
:100130002E0B310B500B960D9A0D600D630D660D55
:100140006A0D6E0D710D750D780D7B0D7E0D810D97
:10015000850D890D8D0D900D6B176E175D1761174D
:100160006717A517721776177C17801784178A17D9
:100170008E179217A51798179C17A0170C94D90BD8
:100180000C94B1050C948D0D0C9492170C948E1751
:100190000C942C0A0C94710D0C946E170C949E0503
:1001A0000C94510C0C94AE050C94BA050C942E0BC7
:1001B0000C9492180C94B4050C940D190C947217AD
:1001C0000C942B0B0C9421110C9476170C94810D2C
:1001D0000C94070B0C94B7050C94EF0A0C945D1764
:1001E0000C94780D0C947E0D0C94220B0C94CB0B7C
:1001F0000C94500B0C9480170C94DB050C94A20506
:100200000C94750D0C9417110C94F00F0C94651848
:100210000C940A0B0C94900D0C9461170C947C17A1
:100220000C94CE0F0C94960D0C94850D0C941F0B12
:100230000C943A180C9484170C94280A0C944218C5
:100240000C944E0F0C94660D0C94430F0C94F9040F
:100250000C946B170C94AB050C94A5050C94890DAC
:100260000C9498170C94A0170C949A0D0C94CE1122
:100270000C945C0F0C94700F0C9411120C94550C90
:100280000C9464180C949C170C941C0B0C941E0C6E
:100290000C94630D0C9467170C947B0D0C94280B35
:1002A0000C9455180C946A0D0C94A8050C94600DD0
:1002B0000C94C4110C946E0D0C94310B0C94A51776
:1002C0000C94250B0C94FF040C948A1700000A0B65
:1002D00002090C0D0E0807030401000000000000D5
:1002E000000000000000000000000000000000000E
:1002F00000000000000000001211100000000000CB
:1003000000000000000000000000000000000000ED
:10031000000001021020200808102040102040801A
:1003200002010201080402010102040810204080B9
:100330008040201008040201800402018040201047
:100340000804020108040201010204081020408090
:10035000010204081020408005050505070508086E
:100360000808020202020A0A08080404040401013F
:100370000101010101010303030303030303040754
:1003800007070C0C0C0C0C0C0C0C020202020606EB
:100390000606060606060B0B0B0B0B0B0B0B0000E1
:1003A0002200250028002B002E003100340002011D
:1003B0000000050108010B010000210024002700B6
:1003C0002A002D0030003300010100000401070164
:1003D0000A014E414E494E495459494E46CDCCCC66
:1003E0003D0AD7233C17B7D13877CC2B329595E609
:1003F000241FB14F0A000020410000C84200401CE9
:100400004620BCBE4CCA1B0E5AAEC59D7400407A35
:1004100010F35A00A0724E18090010A5D4E800008D
:10042000E87648170000E40B54020000CA9A3B002B
:100430000000E1F505000080969800000040420FA2
:10044000000000A08601000000102700000000E866
:1004500003000000006400000000000A000000002B
:10046000000100000000002C76D888DC674F0823CC
:10047000DFC1DFAE59E1B1B796E5E3E453C63AE632
:1004800051997696E8E6C28426EB898C9B62ED4012
:100490007C6FFCEFBC9C9F40F2BAA56FA5F4900561
:1004A0005A2AF75C936B6CF9676DC11BFCE0E40D95
:1004B00047FEF520E6B500D0ED902E030094357789
:1004C000050080841E080000204E0A000000C80CB1
:1004D000333333330F986E12831141EF8D2114891A
:1004E0003BE65516CFFEE6DB18D1844B381BF77C74
:1004F0001D901DA4BBE424203284725E228100C9B9
:10050000F124ECA1E53D2700F904DB05510C211194
:10051000CE110D19FF04550C11241FBECFEFD1E2EF
:10052000DEBFCDBF00E00CBF13E0A0E0B2E0E0ED25
:10053000F8E400E00BBF02C007900D92AA36B107A5
:10054000D9F725E0AAE6B3E001C01D92A939B207A8
:10055000E1F715E0C4E1D5E000E006C0229701090B
:10056000FE010BBF0E94541BC830D10780E0080772
:10057000A9F70E94770B0C9456240C940000FC0100
:100580001582148226E040E855E260E070E08CE2DB
:1005900094E00C9455100F931F93CF93DF938C012D
:1005A000FC01C081D181209731F0CE010E947E14E0
:1005B000CE010E944D16C0E0D0E0F801D183C08387
:1005C00015821482209751F0CE010E947E14CE0134
:1005D000DF91CF911F910F910C944D16DF91CF9128
:1005E0001F910F9108952F923F924F925F926F92B9
:1005F0007F928F929F92AF92BF92CF92DF92EF92B3
:10060000FF920F931F93CF93DF93CDB7DEB7289759
:100610000FB6F894DEBF0FBECDBF8C017B012DB6A7
:100620003EB66CE772E0C7010E940016882339F0DD
:1006300060E070E0C7010E9400168111EEC08DB627
:100640009EB6F701448155814F5F5F4F8DB79EB7CE
:10065000841B950B0FB6F8949EBF0FBE8DBFADB730
:10066000BEB711966D0120E030E0BD01C7010E94C8
:100670001F166BE370E0C6010E942320892B09F44A
:100680006EC066E072E08FE893E00E948C1264E135
:1006900073E0C6010E9416206C0164E173E080E003
:1006A00090E00E9416205C01B6018FE893E00E9462
:1006B0008C12B5018FE893E00E948C12E12CF12C92
:1006C000612C712CD80114968D919C911597681608
:1006D00079060CF055C0D8014D905C904E0C5F1C13
:1006E000B201CE0101960E941915F201868197810F
:1006F00098878F83B601CE0101960E940016582E6E
:10070000CE0101960E947E14552011F16EE072E038
:100710008FE893E00E945D12B6018FE893E00E949B
:100720008C12D8014D905C904E0C5F1CB201CE0132
:1007300001960E941915D2011696ED91FC9117971A
:10074000F887EF83C5011995CE0101960E947E14AA
:10075000BFEF6B1A7B0AE8E0EE0EF11CB3CFB701D6
:100760008FE893E00E947A12C12CD12CA12CB12CDD
:10077000D80114968D919C911597A816B90634F05E
:100780000FB6F8949EBE0FBE8DBE47C0F8016080C4
:1007900071806C0C7D1CB301CE0101960E9419156D
:1007A000D30116968D919C91179798878F83B701E7
:1007B000CE0101960E94ED15782ECE0101960E9481
:1007C0007E14772019F16EE072E08FE893E00E94CA
:1007D0005D12B7018FE893E00E947A12F801608001
:1007E00071806C0C7D1CB301CE0101960E9419151D
:1007F000D3011696ED91FC911797F887EF838CE75C
:1008000092E01995CE0101960E947E14BFEFAB1ABB
:10081000BB0AE8E0CE0ED11CABCF0FB6F8943EBEBB
:100820000FBE2DBE28960FB6F894DEBF0FBECDBF0B
:10083000DF91CF911F910F91FF90EF90DF90CF90BC
:10084000BF90AF909F908F907F906F905F904F90F0
:100850003F902F9008958CE294E00C947A126F925E
:100860007F928F929F92AF92BF92CF92DF92EF9240
:10087000FF920F931F93CF93DF93CDB7DEB76097AF
:100880000FB6F894DEBF0FBECDBF8C017B016A01AD
:100890006CE772E0CE0109960E94EC14F88AEF86AC
:1008A000B601CE0109960E940215BE01675F7F4F17
:1008B000CE0101960E9419158F85988998878F839C
:1008C000F801A480B5806501FFEFCF1ADF0A81EE41
:1008D000C8168FE0D80640F4C60123E0880F991FA0
:1008E0002A95E1F7029602C08FEF9FEF0E944B1608
:1008F000FC01C192D1927F016F01EFEFAE16BE06EF
:1009000061F06CE772E0C7010E94EC14F8E0EF0EB2
:10091000F11C81E0A81AB108F0CF7601612C712C8E
:10092000812C912CF80184819581A080B18088165A
:100930009906B4F4A60CB71CB501C7010E940215B4
:10094000F50186819781F70197838683FFEF8F1AE0
:100950009F0A88E0680E711CE8E0EE0EF11CE2CF01
:10096000A114B10431F0C5010E947E14C5010E949A
:100970004D16F801D182C082E480F58083E0EE0C50
:10098000FF1C8A95E1F7EC0CFD1CBE016F5F7F4FE9
:10099000C7010E9402158F819885F701978386838E
:1009A000F80184819581019695838483CE01019617
:1009B0000E947E1461E272E08FE893E00E948C1244
:1009C000CE0109960E947E1460960FB6F894DEBFA1
:1009D0000FBECDBFDF91CF911F910F91FF90EF9090
:1009E000DF90CF90BF90AF909F908F907F906F904F
:1009F00008956CE772E08CE693E00C94EC148CE6BE
:100A000093E00C947E140F931F93CF93DF9300D049
:100A100000D0CDB7DEB78C016CE772E08CE693E0D6
:100A20000E9422158CE294E00E94430F892B91F0E2
:100A30006CE274E0CE0101960E946414BE016F5F07
:100A40007F4F8CE693E00E940215CE0101960E9432
:100A50007E14E8CF6CE673E0CE0101960E94191572
:100A6000BE016F5F7F4FC8010E94F302CE01019665
:100A70000E947E1426960FB6F894DEBF0FBECDBF3F
:100A8000DF91CF911F910F91089561E088E00E945E
:100A9000A61760E182E793E00E94C40E882399F0D4
:100AA0006FE272E08FE893E00E948C1268E472E0DB
:100AB0008FE893E00E948C1264E670E080E090E0A2
:100AC0000E94C816E6CF63E672E08FE893E00C94CC
:100AD0008C120F931F93CF93DF93CDB7DEB7299777
:100AE0000FB6F894DEBF0FBECDBF8C018CE090E056
:100AF000F80191838083198682E793E00E94350F85
:100B0000833009F049C0AE014F5F5F4FBE01675FA0
:100B10007F4F82E793E00E94FE0E82E793E00E94FF
:100B20003D0F6F3B51F5498150E0FA013497ED31AB
:100B3000F10500F5EE58FF4F0C94431BF8011182AC
:100B400010822AC081E090E024C082E090E021C0C1
:100B500083E090E01EC084E090E01BC085E090E060
:100B600018C086E090E015C087E090E012C089E0F0
:100B700090E00FC08CE090E00CC06B3169F48D8187
:100B8000811103C08AE090E004C0813029F48BE039
:100B900090E0F8019183808329960FB6F894DEBF28
:100BA0000FBECDBFDF91CF911F910F910895FC0132
:100BB00080819181089569E082E793E00C94B60EFC
:100BC000CF93DF93EC0183ED94E00E94D11881E094
:100BD00090E09C838B83DF91CF910895FB0183810B
:100BE00082958F7090E00895FB018281992787FD9F
:100BF0009095892F881F8827881F90E00895FB0112
:100C0000DC0113968D919C911497608121816F7303
:100C100070E0762F6627620F711D019781F4882797
:100C200077FD8095982F3DE0660F771F881F991FED
:100C30003A95D1F7685E7E46834091090FC08827B8
:100C400077FD8095982F2DE0660F771F881F991FDD
:100C50002A95D1F7685171498C4F9F4F0E946B1CA8
:100C60000895FC0120812F612F792F77208308952B
:100C7000EF92FF920F931F93CF93DF9300D01F92B9
:100C80001F92CDB7DEB77C01FB01CA01B9018E010D
:100C90000F5F1F4F25E0D8011D922A95E9F7E1303B
:100CA000F10511F021E001C021E12B83D7012C9146
:100CB00021FF02C030E83C8322FF03C03C81346046
:100CC0003C8323FF03C03C8132603C8324FF03C08C
:100CD0003C8138603C8325FF03C03C8130623C830B
:100CE0003C8130613C8326FF02C030E43D8327FF16
:100CF00003C02D8120682D8320E030E04AE754E4D2
:100D0000319749F40E94721D20E030E041E653E43F
:100D10000E94681B08C00E94721D20E030E041E67E
:100D200053E40E94671B20E030E040E850E40E945A
:100D3000721D2FE632E143E052E40E94D01B0E9474
:100D40003D1C7F7379836A8360E670E083ED94E0F5
:100D50000E94F5187E01B6E0EB0EF11CF8016191DE
:100D60008F0183ED94E00E9492180E151F05B1F7D4
:100D700083ED94E00E940A190F900F900F900F904E
:100D80000F90DF91CF911F910F91FF90EF900895F9
:100D9000EF92FF920F931F93CF93DF938C01EB01A0
:100DA0000E94FF0520E030E040EC57E40E94681B01
:100DB00020E034E244E759E40E94D01B20E034E212
:100DC00044E759E40E94721D20E03AEB4BE558E4F9
:100DD0000E94681B20E030E040E850E40E94721D51
:100DE00020E030E040E058E30E94721D0E943D1C6C
:100DF00069837F737064788380ED8A831B82F80136
:100E0000808181FF02C080E88B83F801808182FFAE
:100E100003C08B8184608B83F801808183FF03C0D2
:100E20008B8182608B83F801808184FF03C08B817A
:100E300088608B83F801808185FF03C08B8180628D
:100E40008B838B8180618B831C82F801808186FF7C
:100E500002C080E48C83F801808187FF03C08C810D
:100E600080688C8360E670E083ED94E00E94F51862
:100E7000E12CF12C699183ED94E00E949218FFEF30
:100E8000EF1AFF0A85E0E816F104A1F783ED94E07C
:100E90000E940A1981E090E0F80194838383DF9136
:100EA000CF911F910F91FF90EF900895EF92FF92D5
:100EB0000F931F93CF93DF938C01EB010E94FF05EB
:100EC00020E030E040EC57E40E94671B20E034E271
:100ED00044E759E40E94D01B20E034E244E759E49F
:100EE0000E94721D20E03AEB4BE558E40E94681B1B
:100EF00020E030E040E850E40E94721D20E030E045
:100F000040E058E30E94721D0E943D1C69837F737C
:100F10007064788380E58A831B82F801808181FF79
:100F200002C080E88B83F801808182FF03C08B813F
:100F300084608B83F801808183FF03C08B81826092
:100F40008B83F801808184FF03C08B8188608B8351
:100F5000F801808185FF03C08B8180628B838B8148
:100F600080618B831C82F801808186FF02C080E44F
:100F70008C83F801808187FF03C08C8180688C831B
:100F800060E670E083ED94E00E94F518E12CF12C0E
:100F9000699183ED94E00E949218FFEFEF1AFF0A27
:100FA00085E0E816F104A1F783ED94E00E940A19A8
:100FB00081E090E0F80194838383DF91CF911F91CA
:100FC0000F91FF90EF9008950F931F93CF93DF93AE
:100FD000EB0185E0FB0111928A95E9F745E050E0CD
:100FE00060E670E083ED94E00E94E81883ED94E001
:100FF0000E943A18009781F08E01C0E0D0E083EDA6
:1010000094E00E944218F80181938F012196C53027
:10101000D105A9F781E090E0DF91CF911F910F9169
:101020000895AF92BF92CF92DF92EF92FF920F930B
:101030001F93CF93DF9300D01F921F92CDB7DEB7DF
:101040008C016A017B01CB01BA0160537242894F66
:101050009F4F0E94691C20E034E244E759E40E945B
:10106000D01B9B01AC0161E070E0C8010E94380612
:101070006EE170E080E090E00E94C816BE016F5FF4
:101080007F4FC8010E94E407019731F4AC80A2941D
:101090005FE0A522B12C02C0A12CB12CC701B60182
:1010A000605D7D4D864091090E94691C20E034E21C
:1010B00044E759E40E94D01B9B01AC0160E070E062
:1010C000C8010E9438066EE170E080E090E00E9466
:1010D000C816BE016F5F7F4FC8010E94E4070197E9
:1010E00059F42C8122952F7030E081E090E0A21617
:1010F000B30624F080E002C080E090E00F900F90F3
:101100000F900F900F90DF91CF911F910F91FF9053
:10111000EF90DF90CF90BF90AF900895CF92DF9285
:10112000EF92FF92CF93DF93EC016A017B0120E005
:1011300034E244E759E4C701B6010E94721D0E94DF
:101140003D1CAB01BC01CE010E9411089C838B8326
:10115000A7019601BC01CE01DF91CF91FF90EF90E6
:10116000DF90CF900C9438060F931F93CF93DF93AB
:10117000EC018B01FB01808187FF47C086FF27C000
:101180004130510581F440E050E06FEA72E4CE0155
:101190000E948E08B801CE010E94E407B801CE017A
:1011A0000E94C80612C04230510539F740E050E0B5
:1011B00068ED72E4CE010E948E08B801CE010E9453
:1011C000E407B801CE010E94560780E01DC0CE01A1
:1011D0000E94FF0520E030E543EC57E40E94D01B5D
:1011E00020E030E040E05FE30E94681B0E94A61C04
:1011F00020E030E040E251E40E94D01BAB01BC0192
:10120000CE010E948E0881E090E0DF91CF911F9186
:101210000F910895FC016281738184819581089505
:10122000CF93DF93EC01CB010E940A20AB01BC01FC
:10123000CE010C96DF91CF910C948E08EF92FF9225
:101240000F931F93CF93DF93EC017C0187E0E80EAF
:10125000F11C8E01045F1F4FB701C8010E94E40713
:10126000019709F061C0B701C8010E94FF0520E0A5
:1012700030E543EC57E40E94D01B20E030E040E032
:101280005FE30E94681B0E94A61C20E030E040E261
:1012900051E40E94D01B6A837B838C839D83B701BA
:1012A000C8010E94F40521E0892B09F420E02E8377
:1012B000B701C8010E94EE05998388836DE772E04B
:1012C0008FE893E00E945D124A815B816C817D8191
:1012D00022E030E08FE893E00E94341465E872E089
:1012E0008FE893E00E945D126E8170E04AE050E06A
:1012F0008FE893E00E94411363E972E08FE893E086
:101300000E945D12688179814AE050E08FE893E0A5
:101310000E9441138FE893E0DF91CF911F910F91CD
:10132000FF90EF900C946612DF91CF911F910F9177
:10133000FF90EF9008950F931F93CF93DF938C014D
:10134000EC012C96CE010E94E00583ED94E00E9412
:10135000D118CE010E9431064DEC5CEC62ED72E4D6
:10136000CE010E948E0864EA72E08FE893E00E944A
:101370008C12C801DF91CF911F910F910C941E091F
:10138000CF92DF92EF92FF920F931F93CF93DF9351
:10139000EC017C0187E0E80EF11C8E01045F1F4F19
:1013A000B701C8010E94C8066CE271E080E090E0DD
:1013B0000E94C816B701C8010E94E40741E050E04E
:1013C000B701C8010E94B4086C01CE010E941E0939
:1013D000CA94CD2899F7DF91CF911F910F91FF907B
:1013E000EF90DF90CF900895CF92DF92EF92FF922F
:1013F0000F931F93CF93DF93EC017C0187E0E80EFE
:10140000F11C8E01045F1F4FB701C8010E945607EF
:101410006CE271E080E090E00E94C816B701C8015C
:101420000E94E40742E050E0B701C8010E94B408FE
:101430006C01CE010E941E09CA94CD2899F7DF9154
:10144000CF911F910F91FF90EF90DF90CF90089573
:1014500061E08EE20C94DF1760E08EE20C94DF17FF
:1014600008950F931F93CF93DF9300D000D0CDB793
:10147000DEB761E08EE20E94A61760E08EE20E9475
:10148000DF1726E040E855E260E070E08FE893E087
:101490000E94551081E190E00E9449168C010E9443
:1014A0009B09109386030093850368EE73E080E048
:1014B00090E00E94C81682E090E00E9449168C01DC
:1014C0000E94450510938E0300938D036FEA72E02E
:1014D000CE0101960E94EC14AE014F5F5F4F6BECA2
:1014E0007BE087E893E00E942F04CE0101960E94E2
:1014F0007E1466EB72E0CE0101960E94EC14AE0100
:101500004F5F5F4F69ED7BE087E893E00E942F0417
:10151000CE0101960E947E146DEB72E0CE01019621
:101520000E94EC14AE014F5F5F4F6EE17CE087E8F4
:1015300093E00E942F04CE0101960E947E1463EC7A
:1015400072E0CE0101960E94EC14AE014F5F5F4F36
:1015500068E27AE087E893E00E942F04CE010196CA
:101560000E947E146BEC72E0CE0101960E94EC1496
:10157000AE014F5F5F4F6CE27AE087E893E00E9434
:101580002F04CE0101960E947E1426960FB6F89481
:10159000DEBF0FBECDBFDF91CF911F910F91089598
:1015A000CF93DF9300D000D0CDB7DEB787E893E0CC
:1015B0000E94030580918D0390918E030E9469051E
:1015C00080918D0390918E030E94D7058C309105F8
:1015D00008F084C0FC01E157FF4F0C94431B62EDFF
:1015E00072E0CE0101960E94EC14BE016F5F7F4F46
:1015F00087E893E00E942B04CE0101960E947E149E
:1016000062ED72E08FE893E00E948C1267C069ED92
:1016100072E002C06FED72E0CE0101960E94EC1400
:10162000BE016F5F7F4F87E893E00E942B04CE01DD
:1016300001960E947E1452C064EE72E0EDCF6BEE14
:1016400072E0EACF60EF72E0E7CF66EF72E0E4CFDE
:101650006CEF72E0E1CF6EE173E0DECF69E273E040
:10166000DBCF80918403811139C08FEF92E00E941B
:10167000280A62E073E0CE0101960E94EC14BE01DC
:101680006F5F7F4F87E893E00E942B04CE010196A5
:101690000E947E1481E080938403109283031EC015
:1016A0008091830381111AC08FEF92E00E942C0A6F
:1016B00068E073E0CE0101960E94EC14BE016F5FFA
:1016C0007F4F87E893E00E942B04CE0101960E9491
:1016D0007E141092840381E08093830326960FB6D4
:1016E000F894DEBF0FBECDBFDF91CF9108950E9469
:1016F000F0160E94300A0E94310AC0E7DFE00E9423
:10170000D00A2097E1F30E94700FF9CFCF93DF93B7
:10171000CDB7DEB762970FB6F894DEBF0FBECDBF70
:1017200080918503909186030E940A09AB01BC0158
:1017300021E0CE010D960E943A1560E173E0CE01E2
:1017400007960E94EC14BE01635F7F4FCE0107969F
:101750000E94AA15BC01CE0101960E941915BE0176
:101760006F5F7F4F87E893E00E942B04CE010196C4
:101770000E947E14CE0107960E947E14CE010D9623
:101780000E947E1462960FB6F894DEBF0FBECDBFE6
:10179000DF91CF91089580918503909186030E94F7
:1017A000C00966E173E08FE893E00E948C120C940C
:1017B000860B80918503909186030E94F40961E273
:1017C00073E08FE893E00E948C120C94860B0F93C9
:1017D0001F93CF93DF93CDB7DEB72C970FB6F89456
:1017E000DEBF0FBECDBF8C0160E173E0CE01079676
:1017F0000E94EC14B801CE0107960E94AA15BC0104
:10180000CE0101960E941915BE016F5F7F4F87E8D8
:1018100093E00E942B04CE0101960E947E14CE011B
:1018200007960E947E142C960FB6F894DEBF0FBE6A
:10183000CDBFDF91CF911F910F9108950F931F930B
:10184000CF93DF9300D000D0CDB7DEB78C016EE22E
:1018500073E08FE893E00E948C12B8018FE893E068
:101860000E948C12B80180918503909186030E949A
:101870001009B801CE0101960E94EC14CE01019628
:101880000E94E70BCE0101960E947E1426960FB6A9
:10189000F894DEBF0FBECDBFDF91CF911F910F91A6
:1018A000089587E893E00C94BF0287E893E00C94D6
:1018B000CB028EBD00000DB407FEFDCF8EB508959E
:1018C000CF93DF93EC0160E088890E94DF1780EC02
:1018D0000E94590C61E088890E94DF176AE070E07D
:1018E00080E090E0DF91CF910C94C8161F93CF93C6
:1018F000DF93EC01162F60E088890E94DF1783E0F8
:101900000E94590C812F0E94590C80E00E94590CB2
:10191000182F61E088890E94DF17812FDF91CF9116
:101920001F910895CF92DF92EF92FF920F931F9332
:10193000CF93DF931F921F92CDB7DEB78C01F62EA7
:10194000E22E60E0FC01808949835A830E94DF1700
:1019500083E00E94590C8F2D0E94590C4981C42E9E
:101960005A81D52EF12CFE1459F0F8E0FF1641F003
:1019700080E00E94590CF60181936F01F394F3CF3C
:1019800061E0F80180890F900F90DF91CF911F9156
:101990000F91FF90EF90DF90CF900C94DF17EF92B4
:1019A000FF921F93CF93DF931F92CDB7DEB77C01D9
:1019B000162F60E0FC01808949830E94DF1782E0D6
:1019C0000E94590C812F0E94590C4981842F0E943A
:1019D000590C61E0F70180890F90DF91CF911F9141
:1019E000FF90EF900C94DF17EF92FF921F93CF932D
:1019F000DF931F921F92CDB7DEB77C01162F60E0F8
:101A0000FC0180892A8349830E94DF1785E00E94B8
:101A1000590C812F0E94590C4981842F0E94590C26
:101A20002A81822F0E94590C61E0F70180890F9072
:101A30000F90DF91CF911F91FF90EF900C94DF17E3
:101A40001F93CF93DF93EC0160E088890E94DF173A
:101A500080EA0E94590C80E00E94590C182F61E026
:101A600088890E94DF17812FDF91CF911F91089500
:101A70001F93CF93DF93EC01162F262F40EE6FE0DC
:101A80000E94F40C6FE0CE010E94760C982F907E9D
:101A900081E0911301C080E0DF91CF911F91089503
:101AA0000F931F93CF93DF93EC01462F50E0FA0181
:101AB0003197E131F105C0F5E556FF4F0C94431B1A
:101AC00017E80FEF05C017E00AEB02C015E801EFB9
:101AD0004FE033C017E00EEB49E02FC017E80FEFDF
:101AE00002C017E80AEF47E028C017E80FEF0BC065
:101AF00017E00EEB08C017E00DEA05C017E80AEF83
:101B000002C016E800EF43E018C017E80AEF41E012
:101B100014C015E801EF41E410C016E800EF02C060
:101B200012E800ED40E009C081E016C017E80FEFB1
:101B30004FE303C017E80FEF4FE16AE2CE010E94C6
:101B4000CF0C402F69E2CE010E94CF0C412F68E2FA
:101B5000CE010E94CF0C80E0DF91CF911F910F91B9
:101B600008951F93CF93DF93EC0110E340E0612FC2
:101B7000CE010E94CF0C60E1610F40E0CE010E94D7
:101B8000CF0C60E2610F40E0CE010E94CF0C1F5FDE
:101B90001E3361F740E060E6CE010E94CF0C40E0CA
:101BA00060E7CE01DF91CF911F910C94CF0C0F9382
:101BB0001F93CF93DF93EC01062F0E94600C60E827
:101BC000CE010E94380D182F6AE070E080E090E0AE
:101BD00011110CC00E94C816602FCE010E94500D3A
:101BE000882339F06AE070E080E090E00E94C81637
:101BF00028C06AE070E080E090E00E94C816CE0144
:101C00000E94B10D43E06BE2CE010E94CF0C24E0B4
:101C100044E660E6CE010E94F40C20E040E660E776
:101C2000CE010E94F40C60E0CE010E94380DC82F56
:101C30008823C1F26AE070E080E090E00E94C8165C
:101C40001C2F812FDF91CF911F910F910895EF925B
:101C5000FF920F931F93CF93DF9300D01F92CDB7C6
:101C6000DEB77A018901FA011082F901108211822E
:101C70001282138224E0AE014F5F5F4F0E94920CEC
:101C80002A813981822F90E045E0959587954A9584
:101C9000E1F7F8E03F9F800D911D1124AA2797FDE1
:101CA000A095BA2FF80180839183A283B38323FF89
:101CB00025C062E0880F991FAA1FBB1F6A95D1F744
:101CC0002370820F911DA11DB11DBA2FA92F982F2E
:101CD00088272B81820F911DA11DB11DBA2FA92F1D
:101CE000982F88272C81820F911DA11DB11D808303
:101CF0009183A283B38381E0F70180830F900F90DB
:101D00000F900F90DF91CF911F910F91FF90EF9067
:101D100008950F931F93CF93DF93EC01162F9C012F
:101D20002F5F3F4FAC010E94270E6FEF610FCE0176
:101D30000E94760C082F64E0610FCE010E94760CA1
:101D4000282F8D8303FF03C081E08E8701C01E868C
:101D50002F702D83AE014A5F5F4F65E0610FCE01AA
:101D6000DF91CF911F910F910C94920CCF93DF9341
:101D7000EC01862F688B61E00E94A61761E08889DC
:101D8000DF91CF910C94DF17CF93DF9300D0CDB7C5
:101D9000DEB76B8389839A830E9415186B818981D2
:101DA0009A810E94D70D91E0811101C090E0892FA6
:101DB0000F900F900F90DF91CF910895CF93DF9305
:101DC000EC010E94200D80FF07C061E6CE010E9459
:101DD000890E20E041E008C081FF0CC061E7CE0120
:101DE0000E94890E20E042E06CE2CE010E94F40CD9
:101DF00080E001C084E0DF91CF910895EF92FF92DF
:101E00000F931F93CF93DF931F921F92CDB7DEB72F
:101E10007C018B0149835A830E94DE0E49815A81DD
:101E2000811118C0D70115969C91F8019083FA0191
:101E300020E030E0D70115964C9150E0241735078B
:101E40005CF4D701A20FB31F16969C9191932F5F5C
:101E50003F4FF0CFF80110820F900F90DF91CF919C
:101E60001F910F91FF90EF9008950E94200D8370B5
:101E700011F083E0089584E00895FC01618172818E
:101E8000838194810895FC01818D228D90E0805C96
:101E90009F4F821B91098F7399270895FC01918DA3
:101EA000828D981731F0828DE80FF11D858D90E0BD
:101EB00008958FEF9FEF0895FC01918D828D981703
:101EC00061F0828DDF01A80FB11D5D968C91928D1E
:101ED0009F5F9F73928F90E008958FEF9FEF08951B
:101EE00087E191E1892B41F080E090E0892B21F09E
:101EF0000E941711811125C080E090E0892B41F0EC
:101F000080E090E0892B21F00E94000081111CC02C
:101F100080E090E0892B41F080E090E0892B21F077
:101F20000E940000811113C084EC91E1892BA1F083
:101F300080E090E0892B81F00E94C41181110AC0D9
:101F400008950E940000D8CF0E940000E1CF0E94B7
:101F50000000EACF0C9400000895FC01848DDF019D
:101F6000A80FB11DA35ABF4F2C91848D90E001960C
:101F70008F739927848FA689B7892C93A089B189FB
:101F80008C9180648C93938D848D981306C0028805
:101F9000F389E02D80818F7D80830895CF93DF9337
:101FA000EC01888D8823C9F0EA89FB89808185FD51
:101FB00005C0A889B9898C9186FD0FC00FB607FCB2
:101FC000F5CF808185FFF2CFA889B9898C9185FFF3
:101FD000EDCFCE010E94AD0FE7CFDF91CF910895F5
:101FE000CF92DF92FF920F931F93CF93DF931F92B5
:101FF000CDB7DEB76C01DC015B969C915B975C967C
:102000008C915C97981307C05096ED91FC91519775
:10201000808185FD32C0F601038D10E00F5F1F4FF8
:102020000F731127F02EF601848DF81211C00FB630
:1020300007FCF9CFD6015096ED91FC915197808124
:1020400085FFF1CFC60169830E94AD0F6981EBCF97
:10205000838DE80FF11DE35AFF4F6083D6015B9635
:102060000C935B975296ED91FC915397808180621F
:10207000808381E058968C930DC0D6015696ED91E1
:10208000FC91579760835096ED91FC915197808118
:102090008064808381E090E00F90DF91CF911F9169
:1020A0000F91FF90DF90CF900895BF92CF92DF9273
:1020B000EF92FF92CF93DF93EC016A017B01B22E86
:1020C000E889F98982E08083411581EE580761052E
:1020D0007105A1F060E079E08DE390E0A701960141
:1020E0000E94211B215031094109510956954795FC
:1020F00037952795211580E1380798F0E889F98907
:10210000108260E874E88EE190E0A70196010E94D9
:10211000211B2150310941095109569547953795A1
:102120002795EC85FD853083EE85FF852083188E0D
:10213000EC89FD89B082EA89FB8980818061808396
:10214000EA89FB89808188608083EA89FB898081B4
:1021500080688083EA89FB8980818F7D8083DF911D
:10216000CF91FF90EF90DF90CF90BF9008951F9296
:102170000F920FB60F9211240BB60F922F938F93DD
:102180009F93EF93FF93E0919F03F091A0038081D1
:10219000E091A503F091A60382FD12C09081809189
:1021A000A8038F5F8F732091A903821751F0E091EC
:1021B000A803F0E0E157FC4F958F8093A80301C07E
:1021C0008081FF91EF919F918F912F910F900BBE86
:1021D0000F900FBE0F901F9018951F920F920FB681
:1021E0000F9211240BB60F922F933F934F935F934F
:1021F0006F937F938F939F93AF93BF93EF93FF93CF
:102200008FE893E00E94AD0FFF91EF91BF91AF91E6
:102210009F918F917F916F915F914F913F912F91FE
:102220000F900BBE0F900FBE0F901F9018958FE868
:1022300093E00E94430F21E0892B09F420E0822FD4
:102240000895109292031092910388EE93E0A0E01B
:10225000B0E08093930390939403A0939503B0937D
:10226000960380E493E09093900380938F0385EC32
:1022700090E090939C0380939B0384EC90E0909378
:102280009E0380939D0380EC90E09093A003809345
:102290009F0381EC90E09093A2038093A10382ECD2
:1022A00090E09093A4038093A30386EC90E0909336
:1022B000A6038093A5031092A8031092A90310927D
:1022C000AA031092AB0308951F920F920FB60F92BC
:1022D00011240BB60F922F938F939F93EF93FF933D
:1022E000E0913C04F0913D048081E0914204F09142
:1022F000430482FD12C09081809145048F5F8F73EB
:1023000020914604821751F0E0914504F0E0E45D2D
:10231000FB4F958F8093450401C08081FF91EF9121
:102320009F918F912F910F900BBE0F900FBE0F902A
:102330001F9018951F920F920FB60F9211240BB693
:102340000F922F933F934F935F936F937F938F934E
:102350009F93AF93BF93EF93FF938CE294E00E941F
:10236000AD0FFF91EF91BF91AF919F918F917F91B1
:102370006F915F914F913F912F910F900BBE0F90F6
:102380000FBE0F901F9018958CE294E00E94430FAF
:1023900021E0892B09F420E0822F089510922F0468
:1023A00010922E0488EE93E0A0E0B0E08093300419
:1023B00090933104A0933204B093330480E493E00B
:1023C00090932D0480932C0485E391E0909339043D
:1023D0008093380484E391E090933B0480933A0423
:1023E00080E391E090933D0480933C0481E391E08D
:1023F00090933F0480933E0482E391E090934104E4
:102400008093400486E391E09093430480934204D8
:10241000109245041092460410924704109248040A
:102420000895CF92DF92EF92FF920F931F93CF9375
:10243000DF936C017A01EB01E60EF71E00E010E07D
:10244000CE15DF0561F06991D601ED91FC91019007
:10245000F081E02DC6011995080F191FF1CFC801B1
:10246000DF91CF911F910F91FF90EF90DF90CF9070
:1024700008956115710581F0DB010D900020E9F7E9
:10248000AD0141505109461B570BDC01ED91FC9108
:102490000280F381E02D199480E090E00895DC0142
:1024A000ED91FC91DB0114964D915C9115976D9126
:1024B0007C910280F381E02D19940C943912DC0197
:1024C000ED91FC910190F081E02D19940F931F93F1
:1024D000CF93DF93EC016DE00E945F128C016AE004
:1024E000CE010E945F12800F911FDF91CF911F914B
:1024F0000F9108950F931F93CF93DF93EC010E94E8
:102500004F128C01CE010E946612800F911FDF9145
:10251000CF911F910F9108950F931F93CF93DF9346
:10252000EC010E9439128C01CE010E946612800FCC
:10253000911FDF91CF911F910F9108958F929F92DC
:10254000AF92BF92CF92DF92EF92FF920F931F93C1
:10255000CF93DF93CDB7DEB7A1970FB6F894DEBF68
:102560000FBECDBF7C01C42EE52FCB01D22E19A208
:1025700021E02D1510F02AE0D22E8E010F5D1F4FA5
:102580008D2C912CA12CB12C6C2D7E2FA5019401AA
:102590000E94211B8C2DD29E8019112401501109FB
:1025A0008A3014F4805D01C0895CF80180832115B4
:1025B00031054105510521F0C22EE32FCA01E4CFB8
:1025C000B801C7010E943912A1960FB6F894DEBF78
:1025D0000FBECDBFDF91CF911F910F91FF90EF9074
:1025E000DF90CF90BF90AF909F908F900895CF9243
:1025F000DF92EF92FF920F931F93CF93DF93EC0143
:102600006A017B012115310579F4E881F981019096
:10261000F081E02D642FDF91CF911F910F91FF90FA
:10262000EF90DF90CF9019942A303105E9F477FFCD
:102630001AC06DE20E945F128C0144275527BA012F
:102640004C195D096E097F092AE0CE010E949E1295
:10265000800F911FDF91CF911F910F91FF90EF900D
:10266000DF90CF9008952AE0B701A601CE01DF9157
:10267000CF911F910F91FF90EF90DF90CF900C942E
:102680009E129A01AB01662757FD6095762F0C9438
:10269000F7124F925F926F927F928F929F92AF92BA
:1026A000BF92CF92DF92EF92FF920F931F93CF933F
:1026B000DF93EC016A017B01B22E9A01AB01C701E5
:1026C000B6010E94D51D882319F06CE473E027C081
:1026D00026013701E89477F82FEF3FEF4FE75FE7E8
:1026E000C301B2010E94D51D81110DC02FEF3FEF34
:1026F0004FE75FE7C301B2010E94CC1B18161CF420
:1027000060E573E00CC02FEF3FEF4FE75FE4C701D8
:10271000B6010E946E1D1816ACF464E573E0CE019C
:10272000DF91CF911F910F91FF90EF90DF90CF90AD
:10273000BF90AF909F908F907F906F905F904F90E1
:102740000C9439122FEF3FEF4FE75FECC701B60152
:102750000E94CC1B87FDE1CF20E030E0A901C7013A
:10276000B6010E94CC1B87FF0AC06DE2CE010E9419
:102770005F128C01F7FAF094F7F8F09402C000E0D1
:1027800010E0A12C60E070E080E09FE3AB1441F02A
:1027900020E030E040E251E40E94D01BA394F6CF49
:1027A0009B01AC01C701B6010E94681B6B017C0153
:1027B0000E943D1C2B013C010E94691C9B01AC0145
:1027C000C701B6010E94671B6B017C012AE0B301BF
:1027D000A201CE010E949E12080F191FBB2039F0E2
:1027E00068E573E0CE010E943912080F191F7B2C97
:1027F000772041F120E030E040E251E4C701B6012A
:102800000E94721D6B017C010E94381C4B01AA249E
:1028100097FCA094BA2C2AE030E0B501A401CE01C7
:102820000E94F712080F191FC501B4010E946B1C0A
:102830009B01AC01C701B6010E94671B6B017C01C3
:102840007A94D6CFC801DF91CF911F910F91FF905D
:10285000EF90DF90CF90BF90AF909F908F907F9040
:102860006F905F904F9008950C9449130F931F93AE
:10287000CF93DF93EC010E949916688779878A8746
:102880009B87E881F9810680F781E02DCE011995BB
:1028900097FF15C00E949916088519852A853B85E2
:1028A000601B710B820B930B0C811D812E813F816C
:1028B000601771078207930720F38FEF9FEFDF9177
:1028C000CF911F910F9108950F931F93CF93DF9393
:1028D000EC018B016CE772E00E94EC14C8010E94CD
:1028E000361497FD05C0682FCE010E949615F6CFCD
:1028F000CE01DF91CF911F910F910895FC0180814E
:1029000091810C94921ECF93DF93EC018881998181
:10291000009711F00E94921E198218821D821C825B
:102920001B821A82DF91CF9108950F931F93CF934B
:10293000DF93EC018B016F5F7F4F888199810E944B
:10294000211F009731F0998388831B830A8381E0DC
:1029500001C080E0DF91CF911F910F910895CF9337
:10296000DF93EC0188819981892B29F08A819B81F1
:102970008617970760F4CE010E949514882341F0D2
:102980008C819D81892B19F4E881F981108281E085
:10299000DF91CF910895EF92FF920F931F93CF9302
:1029A000DF93EC017B018A01BA010E94AF1481110F
:1029B00004C0CE010E94831407C01D830C83B7019D
:1029C000888199810E943720CE01DF91CF911F919C
:1029D0000F91FF90EF900895FC01118210821382F5
:1029E0001282158214826115710559F0FB01019064
:1029F0000020E9F7AF0141505109461B570B0C94D9
:102A0000CB140895CF93DF93EC01FB018617970752
:102A100061F0608171816115710529F044815581F2
:102A20000E94CB1402C00E948314CE01DF91CF918B
:102A30000895FC0111821082138212821582148281
:102A40000C940215CF93DF93EC016115710561F0D1
:102A5000FB0101900020E9F7AF0141505109461BED
:102A6000570B0E94CB1402C00E948314CE01DF9149
:102A7000CF910895EF92FF920F931F93CF93DF931F
:102A8000CDB7DEB7A1970FB6F894DEBF0FBECDBFAE
:102A90007C01CB01BA01F7011182108213821282EC
:102AA0001582148242E0420F8E010F5F1F4F0E9479
:102AB000D91DBC01C7010E942215A1960FB6F8943A
:102AC000DEBF0FBECDBFDF91CF911F910F91FF9061
:102AD000EF900895EF92FF920F931F93CF93DF93A0
:102AE000EC017B010C811D816115710511F480E001
:102AF00016C04115510591F0040F151FB8010E9431
:102B0000AF148823A1F3288139818C819D81B7017D
:102B1000820F931F0E9437201D830C8381E0DF9179
:102B2000CF911F910F91FF90EF900895CF93DF9376
:102B30001F921F92CDB7DEB769831A8241E050E041
:102B4000BE016F5F7F4F0E946A150F900F90DF915B
:102B5000CF910895CF93DF93EC01FB014481558120
:102B6000608171810E946A15811103C0CE010E94AB
:102B70008314CE01DF91CF910895CF93DF93DC01D1
:102B8000ED91FC91EB01A881B981309711F010977C
:102B9000C9F4109759F0EB012C813D81232B31F0C2
:102BA0008C9190E091958195910914C0309781F0B6
:102BB000DC0114968D919C911597892B49F08081A9
:102BC00090E008C0BD01CF01DF91CF910C942E2081
:102BD00080E090E0DF91CF910895FC014481558120
:102BE000FB01248135814217530741F40E94BD1532
:102BF00021E0892B09F020E0822F089580E00895DC
:102C0000FC0124813581232B31F421E0611571050C
:102C1000A1F0FB0108C0FC01808191816115710563
:102C200031F421E0FC018081882339F005C00E9445
:102C30002E2021E0892B09F020E0822F08950F93A8
:102C40001F93CF93DF93EB0141155105E9F02097D6
:102C5000D9F0FC016481758126173707A0F4621B47
:102C6000730B8A01015011096017710708F48B0179
:102C7000FC0160817181620F731FA801CE010E9467
:102C80003E20C00FD11F1882DF91CF911F910F916D
:102C900008950C94FA1D0C94FA1D0C94921E1F9228
:102CA0000F920FB60F9211242F933F938F939F9300
:102CB000AF93BF938091CA049091CB04A091CC04B0
:102CC000B091CD043091C90423E0230F2D3720F4B7
:102CD0000196A11DB11D05C026E8230F0296A11D76
:102CE000B11D2093C9048093CA049093CB04A09390
:102CF000CC04B093CD048091CE049091CF04A091E8
:102D0000D004B091D1040196A11DB11D8093CE04D1
:102D10009093CF04A093D004B093D104BF91AF910E
:102D20009F918F913F912F910F900FBE0F901F9009
:102D300018952FB7F8946091CA047091CB048091D4
:102D4000CC049091CD042FBF08953FB7F8948091A3
:102D5000CE049091CF04A091D004B091D10426B5B7
:102D6000A89B05C02F3F19F00196A11DB11D3FBFC3
:102D70006627782F892F9A2F620F711D811D911D53
:102D800042E0660F771F881F991F4A95D1F7089573
:102D9000CF92DF92EF92FF92CF93DF936B017C0192
:102DA0000E94A516EB01C114D104E104F10489F0DD
:102DB0000E94201B0E94A5166C1B7D0B683E734071
:102DC00090F381E0C81AD108E108F108C851DC4F3E
:102DD000EACFDF91CF91FF90EF90DF90CF900895F1
:102DE000789484B5826084BD84B5816084BD85B5E6
:102DF000826085BD85B5816085BDEEE6F0E08081AD
:102E000081608083E1E8F0E01082808182608083CD
:102E1000808181608083E0E8F0E080818160808350
:102E2000E1EBF0E0808184608083E0EBF0E0808182
:102E300081608083E1E9F0E080818260808380812D
:102E400081608083E0E9F0E0808181608083E1EA55
:102E5000F0E0808182608083808181608083E0EA0D
:102E6000F0E0808181608083E1E2F1E08081826036
:102E70008083808181608083E0E2F1E080818160F5
:102E80008083EAE7F0E080818460808380818260D3
:102E900080838081816080838081806880831092BC
:102EA000C100089590E0FC013197E231F10508F08E
:102EB0004CC0E455FF4F0C94431B809180008F77EA
:102EC00003C0809180008F7D809380000895809161
:102ED0008000877FF9CF84B58F7702C084B58F7D5E
:102EE00084BD08958091B0008F7703C08091B000B9
:102EF0008F7D8093B0000895809190008F7707C0F8
:102F0000809190008F7D03C080919000877F809397
:102F1000900008958091A0008F7707C08091A00055
:102F20008F7D03C08091A000877F8093A0000895CB
:102F3000809120018F7707C0809120018F7D03C091
:102F400080912001877F809320010895CF93DF93A4
:102F500090E0FC01EE5EFC4F2491FC01E85AFC4F2E
:102F60008491882349F190E0880F991FFC01E8546F
:102F7000FC4FA591B49182569C4FFC01C591D49110
:102F80009FB7611108C0F8948C91209582238C938F
:102F9000888182230AC0623051F4F8948C91322FD8
:102FA000309583238C938881822B888304C0F89486
:102FB0008C91822B8C939FBFDF91CF9108950F93BB
:102FC0001F93CF93DF931F92CDB7DEB7282F30E04A
:102FD000F901E453FD4F8491F901EE5EFC4F149129
:102FE000F901E85AFC4F04910023C9F0882321F02D
:102FF00069830E9452176981E02FF0E0EE0FFF1FF6
:10300000E256FC4FA591B4919FB7F8948C91611151
:1030100003C01095812301C0812B8C939FBF0F901B
:10302000DF91CF911F910F910895CF93CFB7F8946F
:103030008091D204811116C061E085E30E94DF1700
:1030400061E085E30E94A6178CB580618CBD8CB5CC
:1030500080648CBD61E084E30E94A61761E083E395
:103060000E94A6178091D2048F5F8093D204CFBFB5
:10307000CF9108958091030590E020910405821B73
:10308000910908952091040580910305281750F4B3
:10309000E22FF0E0EB5FFA4F808190E02F5F20930A
:1030A000040508958FEF9FEF0895E0910405809146
:1030B0000305E81730F4F0E0EB5FFA4F808190E011
:1030C00008958FEF9FEF08950895CF92DF92EF92CA
:1030D000FF920F931F93CF93DF937C01CB018A0163
:1030E0002091DF04222389F0EB016B01C40ED51E71
:1030F000CC15DD0569F06991D701ED91FC91019046
:10310000F081E02DC7011995F3CF642F0E94C619F5
:10311000C801DF91CF911F910F91FF90EF90DF9049
:10312000CF900895CF93DF931F92CDB7DEB7698319
:103130002091DF042223D1F02091E004203240F0DE
:1031400021E030E0FC013383228380E090E015C071
:103150008091E104E82FF0E0EE51FB4F99819083DC
:103160008F5F8093E1048093E00405C061E0CE01AD
:1031700001960E94C61981E090E00F90DF91CF91F7
:103180000895FC011382128248EE53E060E070E083
:1031900044835583668377838EE593E091838083B0
:1031A000089510920405109203051092E104109204
:1031B000E0040C941119862F413208F040E265E0DA
:1031C00075E00E942F19109204058093030508955D
:1031D00021E00C94DB1881E08093DF04609302050A
:1031E0001092E1041092E00408950C94EB180F93F0
:1031F000062F21E04091E00462EE74E08091020528
:103200000E9473191092E1041092E0041092DF04FE
:103210000F91089561E00C94F71883ED94E00C94FD
:10322000C1181092920581E08093900510928F054D
:1032300061E084E10E94DF1761E085E10E94DF1711
:10324000E9EBF0E080818E7F808380818D7F8083B9
:1032500088E48093B80085E48093BC0008954132EF
:1032600008F03FC0909192059111FCCF91E09093AE
:103270009205209390052FEF2093250510926A0563
:10328000240F209369059093910590919105880FE3
:10329000892B8093910580918F05813041F41092A4
:1032A0008F05809191058093BB0085EC01C085EE70
:1032B0008093BC00809192058130E1F380916A0592
:1032C000841710F440916A052BE635E0FB01D90123
:1032D0008A2F821B841718F48D918193F9CF842F44
:1032E000089580E008950F93413208F046C0909110
:1032F00092059111FCCF92E0909392050093900576
:103300009FEF9093250510926A0540936905FB0194
:103310006BE675E0DB019A2F961B941718F49191D8
:103320009D93F9CF1092910590919105880F892B6B
:103330008093910580918F05813041F410928F0523
:10334000809191058093BB0085EC01C085EE809350
:10335000BC00222321F0809192058230E1F380911C
:1033600025058F3F61F080912505803251F08091D5
:103370002505803341F483E007C081E005C080E08B
:1033800003C082E001C084E00F910895613298F497
:1033900020919205243089F460934705FC0189E46B
:1033A00095E0DC012A2F281B261718F421912D9374
:1033B000F9CF80E0089581E0089582E0089585EDD9
:1033C0008093BC008091BC0084FDFCCF10929205DC
:1033D000089585EC8093BC001092920508951F9289
:1033E0000F920FB60F9211240BB60F922F933F93AB
:1033F0004F935F936F937F938F939F93AF93BF93FD
:10340000EF93FF938091B900887F803609F49CC0C8
:1034100068F5883209F45BC090F4803109F454C037
:1034200038F4882309F4F5C0883009F44DC0F5C09C
:10343000883109F44CC0803209F45DC0EEC080349C
:1034400009F468C048F4803309F455C0883309F0A2
:10345000E4C080932505A8C0803509F44FC08835A5
:1034600009F45DC0883409F0D8C0D5C0883909F4A2
:10347000C6C0A8F4883709F467C038F4883609F460
:1034800063C0803709F460C0C8C0883809F4B7C089
:10349000803909F45FC0803809F0BFC05BC0803B51
:1034A00009F485C038F4803A09F466C0883A09F412
:1034B0007EC0B3C0803C09F4A6C0883C09F4A3C018
:1034C000883B09F489C0A9C08091910510C09091F2
:1034D0006A0580916905981770F5E0916A0581E0A9
:1034E0008E0F80936A05F0E0E559FA4F8081809352
:1034F000BB0085EC85C0809325058DC0E0916A05F1
:1035000081E08E0F80936A058091BB00F0E0E55961
:10351000FA4F808390916A05809169056DC0E091B2
:103520006A0581E08E0F80936A058091BB00F0E010
:10353000E559FA4F80838091900581116CC081E03C
:1035400080938F0584EA60C083E080939205109297
:103550002605CFCF80912605803208F050C0E0913B
:10356000260581E08E0F809326058091BB00F0E058
:10357000E95DFA4F8083BDCF80912605803230F41B
:10358000E0912605F0E0E95DFA4F10820E94DF1914
:103590006091260570E0E0918B05F0918C0587E243
:1035A00095E01995109226050E94E91936C084E02D
:1035B000809392051092480510924705E0918D0581
:1035C000F0918E05199580914705811105C081E024
:1035D0008093470510924905E091480581E08E0FE0
:1035E00080934805F0E0E75BFA4F80818093BB0051
:1035F0009091480580914705981708F47ACF85E89F
:103600008093BC000AC085EC8093BC0010929205A8
:1036100004C0109225050E94DF19FF91EF91BF9120
:10362000AF919F918F917F916F915F914F913F915A
:103630002F910F900BBE0F900FBE0F901F901895FB
:103640000895A1E21A2EAA1BBB1BFD010DC0AA1FE3
:10365000BB1FEE1FFF1FA217B307E407F50720F0FB
:10366000A21BB30BE40BF50B661F771F881F991F76
:103670001A9469F760957095809590959B01AC01BF
:10368000BD01CF010895EE0FFF1F0590F491E02DCD
:1036900019940E94581BA59F900DB49F900DA49F54
:1036A000800D911D112408950790F691E02D199435
:1036B000A29FB001B39FC001A39F700D811D112473
:1036C000911DB29F700D811D1124911D08955058B8
:1036D000BB27AA270ED0B1C1A2D130F0A7D120F0CC
:1036E00031F49F3F11F41EF497C10EF4E095E7FB0F
:1036F00064C1E92FB3D180F3BA1762077307840757
:10370000950718F071F49EF5E2C10EF4E0950B2ECA
:10371000BA2FA02D0B01B90190010C01CA01A00123
:103720001124FF27591B99F0593F50F4503E68F17E
:103730001A16F040A22F232F342F4427585FF3CFBF
:10374000469537952795A795F0405395C9F77EF490
:103750001F16BA0B620B730B840BBAF09150A1F0D9
:10376000FF0FBB1F661F771F881FC2F70EC0BA0F5F
:10377000621F731F841F48F4879577956795B795E7
:10378000F7959E3F08F0B3CF9395880F08F09927DF
:10379000EE0F979587950895ECD008F481E0089591
:1037A0000CD04BC143D140F03AD130F021F45F3F0F
:1037B00019F003C151118CC12FC150D198F3992335
:1037C000C9F35523B1F3951B550BBB27AA276217E5
:1037D0007307840738F09F5F5F4F220F331F441F2A
:1037E000AA1FA9F333D00E2E3AF0E0E830D0915062
:1037F0005040E695001CCAF729D0FE2F27D0660F4F
:10380000771F881FBB1F261737074807AB07B0E88D
:1038100009F0BB0B802DBF01FF2793585F4F2AF0A3
:103820009E3F510568F0C9C053C15F3FECF3983E1D
:10383000DCF3869577956795B795F7959F5FC9F700
:10384000880F911D9695879597F90895E1E0660F89
:10385000771F881FBB1F621773078407BA0720F002
:10386000621B730B840BBA0BEE1F88F7E09508956B
:1038700004D06894B1112CC10895F8D088F09F57F6
:1038800090F0B92F9927B751A0F0D1F0660F771FAC
:10389000881F991F1AF0BA95C9F712C0B13081F08C
:1038A00016D1B1E0089513C1672F782F8827B85F2C
:1038B00039F0B93FCCF3869577956795B395D9F7ED
:1038C0003EF490958095709561957F4F8F4F9F4FF7
:1038D0000895E89409C097FB3EF490958095709503
:1038E00061957F4F8F4F9F4F9923A9F0F92F96E94C
:1038F000BB279395F695879577956795B795F111C1
:10390000F8CFFAF4BB0F11F460FF1BC06F5F7F4F5D
:103910008F4F9F4F16C0882311F096E911C077236F
:1039200021F09EE8872F762F05C0662371F096E878
:10393000862F70E060E02AF09A95660F771F881F47
:10394000DAF7880F9695879597F90895A9D080F0B2
:103950009F3740F491110EF0BBC060E070E080E84A
:103960009FEB089526F41B16611D711D811D2BC050
:1039700045C0990F0008550FAA0BE0E8FEEF161698
:103980001706E807F907C0F012161306E407F50753
:1039900098F0621B730B840B950B39F40A2661F0C7
:1039A000232B242B252B21F408950A2609F4A1406A
:1039B000A6958FEF811D811D089597F99F6780E877
:1039C00070E060E00895882371F4772321F0985027
:1039D000872B762F07C0662311F499270DC09051CD
:1039E000862B70E060E02AF09A95660F771F881F9B
:1039F000DAF7880F9695879597F908959F3F31F0EC
:103A0000915020F4879577956795B795880F911D0C
:103A10009695879597F908959FEF80EC0895002477
:103A20000A941616170618060906089500240A9423
:103A300012161306140605060895092E0394000CA9
:103A400011F4882352F0BB0F40F4BF2B11F460FF38
:103A500004C06F5F7F4F8F4F9F4F089557FD905861
:103A6000440F551F59F05F3F71F04795880F97FB42
:103A7000991F61F09F3F79F08795089512161306FC
:103A80001406551FF2CF4695F1DF08C0161617062B
:103A90001806991FF1CF8695710561050894089560
:103AA000E5DFA0F0BEE7B91788F4BB279F3860F4C4
:103AB0001616B11D672F782F8827985FF7CF869548
:103AC00077956795B11D93959639C8F30895E89455
:103AD000BB2766277727CB0197F908954ADF08F4BB
:103AE0008FEF08950BD0A9CF9ADF28F09FDF18F051
:103AF000952309F062CF90CF1124EACFAFDFA0F376
:103B0000959FD1F3950F50E0551F629FF001729F72
:103B1000BB27F00DB11D639FAA27F00DB11DAA1F91
:103B2000649F6627B00DA11D661F829F2227B00DDE
:103B3000A11D621F739FB00DA11D621F839FA00D69
:103B4000611D221F749F3327A00D611D231F849FB9
:103B5000600D211D822F762F6A2F11249F57504010
:103B60008AF0E1F088234AF0EE0FFF1FBB1F661FAB
:103B7000771F881F91505040A9F79E3F510570F064
:103B80001CCFA6CF5F3FECF3983EDCF3869577958C
:103B90006795B795F795E7959F5FC1F7FE2B880F5F
:103BA000911D9695879597F90895E3DE880B990BFB
:103BB0000895EF920F931F93CF93DF93E80147FF90
:103BC00002C034E101C034E0E42FFF27E7FDF095A7
:103BD000F7FF03C0F195E195F109E32E022F2E2F97
:103BE000AE010E947420CE01DF91CF911F910F9101
:103BF000EF900895CF93DF938230910510F482E027
:103C000090E0E0919505F091960520E030E0A0E08D
:103C1000B0E0309739F14081518148175907B8F029
:103C20004817590771F482819381109729F01396F0
:103C30009C938E9312972CC0909396058093950534
:103C400027C02115310531F04217530718F0A9019B
:103C5000DB0101C0EF019A01BD01DF010280F381A8
:103C6000E02DD7CF21153105F9F0281B390B243071
:103C7000310580F48A819B816115710521F0FB017A
:103C80009383828304C09093960580939505FE01EB
:103C9000329644C0FE01E20FF31F819391932250AC
:103CA0003109398328833AC02091930530919405D6
:103CB000232B41F4209102023091030230939405AA
:103CC00020939305209100023091010221153105C6
:103CD00041F42DB73EB74091040250910502241BD8
:103CE000350BE0919305F0919405E217F307A0F4EA
:103CF0002E1B3F0B2817390778F0AC014E5F5F4F42
:103D00002417350748F04E0F5F1F509394054093DA
:103D100093058193919302C0E0E0F0E0CF01DF9141
:103D2000CF910895CF93DF93009709F487C0FC01EA
:103D3000329713821282C0919505D09196052097F3
:103D400081F420813181280F391F80919305909152
:103D500094058217930779F5F0939405E093930502
:103D60006DC0DE0120E030E0AE17BF0750F41296C0
:103D70004D915C9113979D014115510509F1DA01AF
:103D8000F3CFB383A28340815181840F951F8A179B
:103D90009B0771F48D919C911197840F951F02964A
:103DA0009183808312968D919C9113979383828344
:103DB0002115310529F4F0939605E09395053EC051
:103DC000D9011396FC93EE9312974D915D91A40F38
:103DD000B51FEA17FB0779F480819181840F951F45
:103DE0000296D90111969C938E93828193811396AA
:103DF0009C938E931297E0E0F0E08A819B8100977C
:103E000019F0FE01EC01F9CFCE010296288139812B
:103E1000820F931F2091930530919405281739073D
:103E200069F4309729F4109296051092950502C016
:103E300013821282D0939405C0939305DF91CF91A2
:103E400008956F927F928F929F92AF92BF92CF927E
:103E5000DF92EF92FF920F931F93CF93DF93EC01CA
:103E6000CB01209781F4DF91CF911F910F91FF90AB
:103E7000EF90DF90CF90BF90AF909F908F907F900A
:103E80006F900C94FA1DFE01E60FF71F9E01225061
:103E90003109E217F30708F4ACC0D9010D911C9168
:103EA000119706171707B8F00530110508F49FC0E1
:103EB000A801445051094617570708F498C002500A
:103EC0001109061B170B019311936D937C93CF017E
:103ED0000E94921E8CC05B01A01AB10A4E01800E96
:103EE000911EA0919505B0919605612C712C60E012
:103EF00070E0109709F449C0A815B905C9F5ED900F
:103F0000FC901197670142E0C40ED11CCA14DB0477
:103F100078F147018A189B08640142E0C40ED11C65
:103F20001296BC9012971396AC91B5E0CB16D104C3
:103F300040F0B282A38391828082D9018D939C93B9
:103F400009C00E5F1F4F0E0D1F1DF9011183008365
:103F5000EB2DFA2F6115710531F0DB011396FC93FF
:103F6000EE93129744C0F0939605E09395053FC0F9
:103F70006D917C9111976616770608F43B01BD019F
:103F800012960D90BC91A02DB4CF609193057091C5
:103F9000940568157905E9F468167906D0F440911E
:103FA0000002509101024115510541F44DB75EB731
:103FB0006091040270910502461B570BE417F50748
:103FC000C0F4F0939405E0939305F9019183808305
:103FD0000EC00E94FA1D7C01009759F0A801BE0195
:103FE0000E941A20CE010E94921EC70104C0CE0179
:103FF00002C080E090E0DF91CF911F910F91FF9080
:10400000EF90DF90CF90BF90AF909F908F907F9078
:104010006F900895662777270C94F22191112BC495
:10402000803219F089508550D0F708954AE653E060
:104030000C944D20FB01DC0102C001900D92415017
:104040005040D8F70895FC018191861721F088230C
:10405000D9F7992708953197CF010895FB01DC0125
:104060008D91019080190110D9F3990B0895FB01EE
:10407000DC0101900D920020E1F70895FB01DC01C5
:104080004150504048F001900D920020C9F701C006
:104090001D9241505040E0F70895FA01A191B0817E
:1040A000009719F41097E1F0CD01DC01CD010D90DE
:1040B000002011F4C00113C0FB012191222319F04B
:1040C0002015D9F7F3CFFB012191201519F41E9289
:1040D000119606C02223C1F70D900020A1F7D00150
:1040E000FA01A193B08308956F927F929F92AF924D
:1040F000BF92CF92DF92EF92FF920F931F93CF93D5
:10410000DF93CDB7DEB729970FB6F894DEBF0FBEA9
:10411000CDBF6A01B22E102F0C3320F4FF24F3948C
:10412000F00E02C04CE3F42E0F2D27E0AE014F5FDE
:104130005F4F0E9463237981272F2970213031F04E
:10414000E1FC06C0E0FC06C060E005C06DE203C013
:104150006BE201C060E2AE2DA07173FF36C0662332
:1041600011F084E001C083E08B1510F4B81A01C08F
:10417000B12CA1110BC0F6018B2D90E2882319F010
:1041800091938150FBCFCB0CD11CB12C662331F025
:10419000F601608396012F5F3F4F6901C6010396C8
:1041A000E2FE05C02EE4F601208331E404C02EE6D1
:1041B000F601208331E631832283FC012B2D30E28E
:1041C0002223F1F131932150FBCF72FF40C06623CF
:1041D00011F084E001C083E08B1510F4B81A01C01F
:1041E000B12CA1110BC0F6018B2D90E2882319F0A0
:1041F00091938150FBCFCB0CD11CB12C662331F0B5
:10420000F601608396012F5F3F4F6901C601039657
:10421000E2FE07C029E4F60120832EE4218326E490
:1042200006C029E6F60120832EE6218326E62283B6
:10423000FC012B2D30E2222319F031932150FBCFCA
:10424000FC01EB0DF11D10828EEF9FEFB7C0B1E0C6
:10425000611101C0B0E04B2F50E01816190624F48C
:104260009C012F5F3F4F02C021E030E0240F351F3B
:10427000112329F0412F50E04F5F5F4F02C040E013
:1042800050E0420F531F2B2D30E04217530714F418
:10429000B41A01C0B12C2E2D287159F4F6012B2D22
:1042A00030E2222319F031932150FBCFCB0CD11CEB
:1042B000B12CBB2331F0F601608396012F5F3F4F95
:1042C0006901A1110BC0F6012B2D30E3222319F057
:1042D00031932150FBCFCB0CD11CB12CF80E0A81AD
:1042E000372F3071A32E74FF03C0013309F4FA9401
:1042F0001F142CF42F2D293018F028E001C021E0E4
:10430000682F392F97FF02C060E030E0462F532F0F
:10431000612C712C3EE2932EBC01621B71099B0142
:10432000DC01A41BB50BE1E0F0E0EC0FFD1FAE0FCC
:10433000BF1FE12EF12CF194E194F1084F3FFFEF04
:104340005F0731F4F6019082B6016F5F7F4F6B011A
:10435000841795074CF02417350734F4BD01660D1A
:10436000771DFB01118101C010E341505109FFEF9E
:104370006F1A7F0AB6016F5F7F4F4E155F0524F0FD
:10438000F60110836B01DACF4817590739F4063369
:1043900020F4053319F4A11001C011E3F6011083D4
:1043A000FB018B2D90E2882319F091938150FBCF74
:1043B000FB01EB0DF11D108280E090E029960FB615
:1043C000F894DEBF0FBECDBFDF91CF911F910F914B
:1043D000FF90EF90DF90CF90BF90AF909F907F9035
:1043E0006F9008958F929F92AF92BF92CF92DF927B
:1043F000EF92FF920F931F93CF93DF938B01611581
:10440000710521F0DB018C9311969C93EC015E0108
:10441000BFEFAB1ABB0A7501C8808C2D90E00E94DB
:104420000E20892B11F0E501F2CFEDE2CE1208C08B
:104430007E01F2E0EF0EF11CC980DD24D39409C0A7
:104440002BE2C21205C07E0142E0E40EF11CC980DD
:10445000D12CE701219743E050E06AED73E0CE01F3
:104460000E943E24892BC1F4239645E050E065ED7F
:1044700073E0CE010E943E24892B09F42596011594
:10448000110519F0D801CD93DC93D11006C160E07D
:1044900070E080E89FE70AC143E050E062ED73E01E
:1044A000CE010E943E24892B59F40115110509F40F
:1044B000F9C0B2E0EB0EF11CF801F182E082F2C02B
:1044C000F70160E070E0CB01C0E0D0E07F01A0ED3B
:1044D000AA2EAC0C29E02A1530F14D2D4260B42EE5
:1044E0002D2D2870D2FE04C0211125C0219623C095
:1044F00021112197A5E0B0E09B01AC010E94491B6E
:10450000660F771F881F991F6A0D711D811D911DF0
:104510006839A9E97A078A07A9E19A0760F0BD2DF1
:10452000B660BB2E08C02EEFA2120AC0D3FC50C04A
:104530004D2D4860B42E3196D701CC90DB2CC6CFE0
:104540002C2D2F7D253409F043C0A081AD3241F4DC
:10455000BD2DB061DB2E7F0122E0E20EF11C0CC00C
:104560007F01AB3231F04FEFE41AF40A21E030E082
:1045700006C0A2E0EA0EF11CA18122E030E0A053C7
:10458000AA3018F0E21AF30A23C0F70120E030E065
:104590002038BCE03B075CF4A901440F551F440FD1
:1045A000551F240F351F220F331F2A0F311DAF0156
:1045B0004F5F5F4F7A01A081A053AA3010F4FA0137
:1045C000E7CFD4FE03C0319521953109C20FD31F27
:1045D000D1FE09C00115110531F0E1E0EE1AF10834
:1045E000D801ED92FC920E94691C2D2D237023307E
:1045F00019F04B015C0106C04B015C01B7FAB094A5
:10460000B7F8B09420E030E0A901C501B4010E94E0
:10461000CC1B882309F43EC0D7FF06C0D195C195B5
:10462000D10901EF13E002C009E014E06801B8E12C
:10463000CB1AD10890E2E92EF12CCE15DF0574F0EB
:10464000F8012591359145915491C501B4010E941D
:10465000721D4B015C01CE19DF09EFCF0450110927
:10466000F594E7940C151D0541F78A2D880F8B2DC5
:10467000881F8F3F49F020E030E0A901C501B40157
:104680000E94CC1B811106C082E290E090939805B5
:1046900080939705C501B40109C060E070E080E82F
:1046A0009FEF04C060E070E080EC9FE7DF91CF9166
:1046B0001F910F91FF90EF90DF90CF90BF90AF9040
:1046C0009F908F900895283008F027E03327DA0173
:1046D000990F311D87FD916000966105710539F4D0
:1046E00032602E5F3D9330E32A95E1F708959F3FB6
:1046F00030F080387105610509F03C5F3C5F3D9307
:10470000913008F08068911DDF93CF931F930F9332
:10471000FF92EF92192F987F9695E92F969596958F
:10472000E90FFF27E959FB4F99273327EE24FF2490
:10473000A701E70105900894079428F4360FE71EB7
:10474000F81E491F511D660F771F881F991F069479
:10475000A1F70590079428F4E70EF81E491F561F8D
:10476000C11D770F881F991F661F0694A1F705903A
:10477000079428F4F80E491F561FC71FD11D880F34
:10478000991F661F771F0694A1F70590079420F4E0
:10479000490F561FC71FD81F990F661F771F881F05
:1047A0000694A9F784911095177041F0D695C79596
:1047B00057954795F794E7941A95C1F7EDE0F4E023
:1047C00068941590159135916591959105907FE2CA
:1047D0007395E118F10A430B560BC90BD009C0F7CA
:1047E000E10CF11E431F561FC91FD01D7EF470330C
:1047F00011F48A95E6CFE894015030F0080F0AF4DE
:104800000027021708F4202F2395022F7A3328F06F
:1048100079E37D932A95E9F710C07D932A9589F66F
:10482000069497956795379517951794E118F10AAF
:10483000430B560BC90BD00998F023957E917395C5
:104840007A3308F070E37C932013B8F77E9170619F
:104850007D9330F0839571E37D9370E32A95E1F7C2
:104860001124EF90FF900F911F91CF91DF91992725
:1048700087FD90950895992788270895FB01DC010D
:104880004150504088F08D9181341CF08B350CF4F0
:10489000805E659161341CF06B350CF4605E861BA4
:1048A000611171F3990B0895881BFCCF15E0C4E1E9
:1048B000D5E000E006C022970109FE010BBF0E946F
:1048C000541BC831D10780E00807A9F7F894FFCF3F
:1048D0000000990580003B20666F756E64004D6195
:1048E000746368656420636F6D6D616E64203A2047
:1048F00000416464656420636F6D6D616E640043A4
:10490000414E2042555320536869656C6420696E9E
:104910006974206661696C0020496E6974204341A6
:104920004E2042555320536869656C64206167616D
:10493000696E0043414E2042555320536869656CAF
:104940006420696E6974206F6B21000900467265EE
:1049500071203A2000202D20697353746572656FB1
:10496000203A00202D207369676E616C4C65766576
:104970006C203A00726164696F20696E697400731B
:1049800065656B7570007365656B646E0073657447
:104990006672007475726E6F6666007475726E6F03
:1049A0006E00766F6C64776E00766F6C7570006267
:1049B00061636B00666F72777264006D7574650079
:1049C000766F6963650070686F6E65006F6B007469
:1049D0006F007374617274007368757464776E002D
:1049E000667265713B007365656B696E67207570F3
:1049F000007365656B696E6720646F776E00667221
:104A0000657175656E637920736574000000000040
:104A1000F00F1112430F5C0F4E0FCE0F6E616E0040
:104A2000696E66006F7666002E0000000000921826
:0A4A300065183A184218551864186A
:00000001FF
